:020000040800F2
:10000000D8060020650200088D0B0008850B00084B
:10001000890B000821030008D10C00080000000033
:10002000000000000000000000000000B50C000807
:100030002503000800000000910B0008B90C00081F
:100040007F0200087F0200087F0200087F0200088C
:100050007F0200087F0200087F0200087F0200087C
:100060007F0200087F0200087F0200087F0200086C
:100070007F0200087F0200087F0200087F0200085C
:100080007F0200087F0200087F02000800000000D5
:10009000000000000000000000000000290300082C
:1000A0007F0200087F0200087F0200087F0200082C
:1000B0007F0200087F0200087F0200087F0200081C
:1000C0007F0200087F0200087F0200087F0200080C
:1000D0007F0200087F0200087F0200080000000085
:1000E0007F0200087F0200087F0200080000000075
:1000F0000000000000000000000000007F02000877
:10010000000000007F0200087F0200087F02000854
:1001100000000000000000000000000000000000DF
:100120007F0200087F0200087F0200087F020008AB
:100130007F02000800000000000000000000000036
:100140000000000000000000000000007F02000826
:100150007F0200087F0200087F0200087F0200087B
:100160007F0200087F02000800000000000000007D
:10017000000000000000000000000000000000007F
:10018000000000007F0200080000000000000000E6
:100190007F0200087F02000800F002F800F052F829
:1001A00014A696E8000CB244B344DA4501D100F03D
:1001B00049F8BAE80F000FA696E83000A5EB040551
:1001C00004EB0607AAEB0704A7F101074FEA151590
:1001D0004FEA3414A4F10104AC4201D300F032F828
:1001E00013F0010F18BFFB1A43F0010300F001F8F0
:1001F000DBE718474018000060180000103A24BFE1
:1002000078C878C1FAD8520724BF30C830C144BF7B
:1002100004680C6070470000704700000023002451
:1002200000250026103A28BF78C1FBD8520728BF06
:1002300030C148BF0B6070471FB501F0EDFB1FBD1B
:1002400010B510BD00F031F81146FFF7F5FF00F0D2
:1002500041FD00F04FF803B4FFF7F2FF03BC00F0DC
:1002600057F800000948804709480047FEE7FEE7C5
:10027000FEE7FEE7FEE7FEE7FEE7FEE7FEE7FEE756
:1002800004480549054A064B70470000BD0C0008AC
:1002900099010008D8000020D8060020D8020020CC
:1002A000D8020020704770477047754600F02CF860
:1002B000AE4605006946534620F00700854618B053
:1002C00020B5FFF7DDFFBDE820404FF000064FF0FE
:1002D00000074FF000084FF0000BAC46ACE8C00937
:1002E000ACE8C009ACE8C009ACE8C00921F00701DE
:1002F0008D46704710B50446AFF300802046BDE838
:100300001040FFF7A8BF0000004870471800002009
:1003100001491820ABBEFEE726000200704700002E
:10032000FEE70000704700004FF4807000F01AB83C
:10033000B0B5044600F030F8054640F20000C2F2C5
:1003400000000078611C18BF044400BF00F024F8CE
:10035000401BA042FAD3B0BDB0F5807F18BF7047F4
:1003600001F082BA43F61441C4F201010A68024264
:1003700014BF08607047FFF7EFBF0000426902EA50
:100380000103914341EA034181617047002A08BF9C
:10039000090481617047000040F2D000C2F2000001
:1003A0000068704740F2000040F2D001C2F2000045
:1003B000C2F2000100780A6810440860704700002B
:1003C0002DE9F04182B0044690F85100012819D17E
:1003D00060681D4617460E46B0F5827F01D1A068C1
:1003E000A0B1FFF7D9FF8046002E4FF0010018BFE3
:1003F000002F03D102B0BDE8F08100BF94F8500097
:10040000012811D1022002B0BDE8F081042084F857
:1004100051002046314632463B46009500F00EFA28
:1004200002B0BDE8F08100BF012084F85000042034
:10043000002184F851006165A663A787E7872163DF
:10044000A186E186A2682068B2F5004F216461644C
:1004500038D00168490640D5E168E08F002944D0D2
:1004600000287BD0681C0CD11BE000BFC068A16BCA
:1004700021F8020BA163E08F0138E087E08F0028AC
:100480006CD020688168C907F0D1FFF785FFA0EB29
:100490000800A842F2D342E0FFF77EFFE08F002879
:1004A0005CD020688168C907F6D0C068A16B21F8CC
:1004B000020BA163E08F0138E087E08F0028F0D1C4
:1004C0004CE000BF016821F040010160016821F4A7
:1004D0008041016001684906BED4016841F04001D5
:1004E0000160E168E08F0029BAD1B8B3681C0CD173
:1004F00024E000BF007BA16B0870A06B0130A063FB
:10050000E08F0138E087E08F40B320688168C90739
:10051000F0D1FFF741FFA0EB0800A842F3D3012080
:1005200084F85100002084F85000032002B0BDE898
:10053000F08100BFFFF730FFE08F78B1206881685D
:10054000C907F7D0007BA16B0870A06B0130A063D6
:10055000E08F0138E087E08F0028EFD16068B0F5C8
:10056000827F0ED1A068B0F5004F02D0B0F5806F49
:100570000AD12168B0F5806F0A6822F040020A6053
:1005800002D12046012101E02046802100222B4695
:10059000CDF8008000F0FEFA28B1606D40F0200038
:1005A000606520206065012084F85100002084F8F7
:1005B0005000606D002818BF012002B0BDE8F08136
:1005C0002DE9F04184B01D4616460F460446FFF75C
:1005D000E3FE94F8511001290ED18046002F4FF010
:1005E000010018BF002E03D104B0BDE8F08100BFA8
:1005F00094F85000012803D1022004B0BDE8F08136
:10060000012084F850000320002184F85100616526
:100610002763A686E686A163A187E187A068216497
:10062000B0F5004F2068616407D1016821F04001F6
:100630000160016841F4804101600168490603D40A
:10064000016841F0400101606168731EE268B1FA1F
:1006500081F1B3FA83F349095B09B2F5006F41EA0E
:10066000030139D131B137F8021BC1602763E08E35
:100670000138E086E08E002870D0681C0BD11AE0AB
:10068000216B31F8022BC2602163E08E0138E086D5
:10069000E08E002862D0206881688907F0D4FFF7D7
:1006A0007BFEA0EB0800A842F2D338E0FFF774FE0F
:1006B000E08E002852D0206881688907F6D5216B2A
:1006C00031F8022BC2602163E08E0138E086E08EB3
:1006D0000028F0D142E000BF39B139780173206BB6
:1006E00001302063E08E0138E086E08EB0B3681CF4
:1006F0000BD123E0216B09780173206B013020635B
:10070000E08E0138E086E08E40B32068816889077A
:10071000F0D4FFF741FEA0EB0800A842F3D301207C
:1007200084F85100002084F85000032004B0BDE894
:10073000F08100BFFFF730FEE08E78B1206881685D
:100740008907F7D5216B09780173206B013020638D
:10075000E08E0138E086E08E0028EFD120460221AD
:1007600001222B46CDF8008000F014FAE0B1606D54
:1007700040F02000606520206065A06838B9002046
:1007800002902068C168029180680290029801205E
:1007900084F85100002084F85000606D002818BFD4
:1007A000012004B0BDE8F08140F20800C2F2000070
:1007B000006849F68171C1F25E61A0FB0101480D3C
:1007C0004FF47A71484303906068B0F5827F0BD193
:1007D0002046802100222B46CDF8008000F0DAF977
:1007E0000028C4D1C9E700BF03980028C5D00398EA
:1007F00001380390206880680006BED50398002861
:10080000BBD0039801380390206880680006B4D5F7
:1008100003980028B1D003980138039020688068BD
:100820000006AAD503980028A7D0039801380390A2
:10083000206880680006D7D49FE700002DE9F043C8
:1008400083B01E4615460F460446FFF7A5FD94F8F3
:1008500051108146012909D1002F4FF0010018BF26
:10086000002D0FD103B0BDE8F08300BF6068B0F584
:10087000827F0DD104294FF00200F3D1A168002935
:10088000EAD0EFE7002EEDD094F85000012803D114
:10089000022003B0BDE8F083012084F8500094F8F2
:1008A0005100002104281CBF052084F85100616517
:1008B000A563E687A6872763E6862068A686216467
:1008C00061640168490603D4016841F04001016098
:1008D0006168731EE268B1FA81F1B3FA83F3DDF85F
:1008E000288049095B09B2F5006F41EA030165D12F
:1008F00031B137F8021BC1602763E08E0138E08612
:10090000012518F1010032D102E000BFFFF744FDDC
:10091000E08E18B9E08F002800F0B8802068816868
:1009200089070CD5E18E51B1012D08D1216B00252D
:1009300031F8022BC2602163E18E0139E1868168C2
:10094000C907E3D0E18F0029E0D0C068A16B012581
:1009500021F8020BA163E08F0138E087D6E700BFE2
:10096000FFF71AFDA0EB0900404580F0A580E08E5E
:1009700018B9E08F002800F0898020688168890715
:100980000CD5E18E51B1012D08D1216B002531F834
:10099000022BC2602163E18E0139E1868168C907BB
:1009A000DED0E18F0029DBD0C068A16B012521F8E2
:1009B000020BA163E08F0138E087D1E739B13978C4
:1009C0000173206B01302063E08E0138E086012541
:1009D00018F1010032D101E0FFF7DEFCE08E10B922
:1009E000E08F002852D02068816889070ED5E18EFB
:1009F00061B1012D0AD1216B002509780173216BAA
:100A0000206801312163E18E0139E1868168C907DF
:100A1000E2D0E18F0029DFD0C068A16B012508700A
:100A2000A06B0130A063E08F0138E087D4E700BFFE
:100A3000FFF7B2FCA0EB090040453DD2E08E08B9BB
:100A4000E08F18B32068816889070ED5E18E61B107
:100A5000012D0AD1216B002509780173216B2068D3
:100A600001312163E18E0139E1868168C907DFD058
:100A7000E18F0029DCD0C068A16B01250870A06B54
:100A80000130A063E08F0138E087D1E720460221E2
:100A900001224346CDF8009000F07CF8B0B1606DC3
:100AA00040F02000606520206065002084F8500040
:100AB000012003B0BDE8F083012084F8510000203C
:100AC00084F85000032003B0BDE8F08340F2080032
:100AD000C2F20000006849F68171C1F25E61A0FBBC
:100AE0000101480D4FF47A71484302906068B0F5F7
:100AF000827F0BD12046802100224346CDF8009012
:100B000000F048F80028CAD124E000BF029808B3DA
:100B10000298013802902068806800061AD5029871
:100B2000C0B102980138029020688068000611D593
:100B3000029878B102980138029020688068000617
:100B400008D5029830B10298013802902068806878
:100B50000006DBD4A06838B9002001902068C16885
:100B60000191806801900198012084F851000020D3
:100B700084F85000606D002818BF012003B0BDE864
:100B8000F0830000FEE70000FEE70000FEE7000043
:100B9000704700002DE9F04381B0089C9846154647
:100BA0000E468146FFF7F8FB201A00EB0804FFF71A
:100BB000F3FB40F20801C2F200010968C1F3CB3136
:100BC00061430091D9F800108A683240921BB2FA52
:100BD00082F25209AA423DD0074618F1010031D0F5
:100BE000FFF7DAFBC01BA04238D20098009900281A
:100BF000A1F101010091D9F80010896808BF0446ED
:100C000001EA0600801BB0FA80F04009A842E7D153
:100C100020E000BF88683040801BB0FA80F04009B7
:100C2000A84217D088683040801BB0FA80F0400995
:100C3000A8420FD088683040801BB0FA80F040098D
:100C4000A84207D088683040801BB0FA80F0400985
:100C5000A842DFD1002001B0BDE8F083D9E900014E
:100C60004268B1F5827F22F0E00242600BD1D9F8F0
:100C70000810B1F5004F02D0B1F5806F03D10168C3
:100C800021F040010160D9F82810B1F5005F07D1CB
:100C9000016821F400510160016841F400510160D4
:100CA000012089F85100002089F85000032001B08C
:100CB000BDE8F08370470000FFF774BB4EF6885024
:100CC000CEF20000016841F470010160704700003D
:100CD000FEE7000040F6C410002100F053FD40F292
:100CE0000C04C2F2000400BF20786178A2780130C1
:100CF000E3782070481C6070501C2179A070581C4B
:100D0000E070481C61792071481CA1796071481C11
:100D1000E179A071481CE071204600F04FFE64208C
:100D2000FFF706FBE0E70000F0B583B040F20044B7
:100D300006460420C4F202048DF8080020464FF451
:100D400000510022FFF722FB40F27805C2F20005B5
:100D50004FF4FA6702A90DF1070228460123009714
:100D6000FFF76CFD0DF10601284601224FF4FA63EE
:100D7000FFF726FB20464FF400510122FFF706FB48
:100D80009DF806002421304340F0F0008DF80B1050
:100D90008DF8090020464FF400510022FFF7F6FAC3
:100DA0000DF10B010DF10A02284601230097FFF710
:100DB00045FD0DF10901284601224FF4FA63FFF7C2
:100DC000FFFB20464FF400510122FFF7DFFA03B08A
:100DD000F0BD0000F0B583B040F2004406460420A8
:100DE000C4F202048DF8080020464FF4005100229E
:100DF000FFF7CCFA40F27805C2F200054FF4FA672B
:100E000002A90DF10702284601230097FFF716FDFE
:100E10000DF10601284601224FF4FA63FFF7D0FADC
:100E200020464FF400510122FFF7B0FA710848F252
:100E300013325143F0229DF8060002EA9141013934
:100E4000084324218DF80B108DF8090020464FF43B
:100E500000510022FFF79AFA0DF10B010DF10A0281
:100E6000284601230097FFF7E9FC0DF10901284608
:100E700001224FF4FA63FFF7A3FB20464FF4005121
:100E80000122FFF783FA03B0F0BD000070B584B013
:100E900040F200440020C4F202048DF80C00204609
:100EA0004FF400510022FFF771FA40F27805C2F2C8
:100EB00000054FF4FA6603A90DF10B022846012341
:100EC0000096FFF7BBFC0DF10A01284601224FF402
:100ED000FA63FFF775FA20464FF400510122FFF73D
:100EE00055FA9DF80A00202140F002008DF80F10FD
:100EF0008DF80D0020464FF400510022FFF746FA0E
:100F00000DF10F010DF10E02284601230096FFF7A7
:100F100095FC0DF10D01284601224FF4FA63FFF70D
:100F20004FFB20464FF400510122FFF72FFA04B087
:100F300070BD000070B584B040F200440020C4F2DF
:100F400002048DF80C0020464FF400510022FFF7F8
:100F50001DFA40F27805C2F200054FF4FA6603A9C3
:100F60000DF10B02284601230096FFF767FC0DF1F7
:100F70000A01284601224FF4FA63FFF721FA2046BE
:100F80004FF400510122FFF701FA9DF80A002021D9
:100F900000F0FE008DF80F108DF80D0020464FF484
:100FA00000510022FFF7F2F90DF10F010DF10E02D1
:100FB000284601230096FFF741FC0DF10D0128465C
:100FC00001224FF4FA63FFF7FBFA20464FF4005179
:100FD0000122FFF7DBF904B070BD00002DE9F041FC
:100FE00082B040F20044C4F2020420464FF40051A3
:100FF0000122FFF7CBF920464FF4805100224FF039
:101000000008FFF7C3F920208DF8070008208DF8AD
:10101000050020464FF400510022FFF7B7F940F2D7
:101020007805C2F200054FF4FA660DF107010DF1E3
:101030000602284601230096FFF700FC0DF105018A
:10104000284601224FF4FA63FFF7BAFA20464FF41C
:1010500000510122FFF79AF921208DF807003F2067
:101060008DF8050020464FF400510022FFF78EF95D
:101070000DF107010DF10602284601230096FFF746
:10108000DDFB0DF10501284601224FF4FA63FFF75D
:1010900097FA20464FF400510122FFF777F92220FA
:1010A0008DF80700032720464FF4005100228DF8E9
:1010B0000570FFF76BF90DF107010DF106022846E7
:1010C00001230096FFF7BAFB0DF105012846012226
:1010D0004FF4FA63FFF774FA20464FF400510122EF
:1010E000FFF754F923208DF8070020464FF40051F4
:1010F00000228DF80570FFF749F90DF107010DF198
:101100000602284601230096FFF798FB0DF1050122
:10111000284601224FF4FA63FFF752FA20464FF4B3
:1011200000510122FFF732F924208DF807002046F4
:101130004FF4005100228DF80570FFF727F90DF1EB
:1011400007010DF10602284601230096FFF776FB02
:101150000DF10501284601224FF4FA63FFF730FA3A
:1011600020464FF400510122FFF710F925208DF899
:10117000070002208DF8050020464FF400510022A0
:10118000FFF704F90DF107010DF1060228460123CE
:101190000096FFF753FB0DF10501284601224FF49D
:1011A000FA63FFF70DFA20464FF400510122FFF7D2
:1011B000EDF826208DF8070007208DF80500204661
:1011C0004FF400510022FFF7E1F80DF107010DF196
:1011D0000602284601230096FFF730FB0DF10501BA
:1011E000284601224FF4FA63FFF7EAF920464FF44C
:1011F00000510122FFF7CAF827208DF807007E2052
:101200008DF8050020464FF400510022FFF7BEF88C
:101210000DF107010DF10602284601230096FFF7A4
:101220000DFB0DF10501284601224FF4FA63FFF78B
:10123000C7F920464FF400510122FFF7A7F83127E4
:1012400020464FF4005100228DF807708DF805807C
:10125000FFF79CF80DF107010DF106022846012366
:101260000096FFF7EBFA0DF10501284601224FF435
:10127000FA63FFF7A5F920464FF400510122FFF76A
:1012800085F820464FF4005100228DF807708DF844
:101290000580FFF77BF80DF107010DF106022846E6
:1012A00001230096FFF7CAFA0DF105012846012235
:1012B0004FF4FA63FFF784F920464FF400510122FE
:1012C000FFF764F832208DF8070020464FF40051F4
:1012D00000228DF80580FFF759F80DF107010DF197
:1012E0000602284601230096FFF7A8FA0DF1050132
:1012F000284601224FF4FA63FFF762F920464FF4C3
:1013000000510122FFF742F833208DF807002046F4
:101310004FF4005100228DF80580FFF737F80DF1EA
:1013200007010DF10602284601230096FFF786FA11
:101330000DF10501284601224FF4FA63FFF740F949
:1013400020464FF400510122FFF720F834208DF899
:10135000070020464FF4005100228DF80580FFF76A
:1013600015F80DF107010DF106022846012300963C
:10137000FFF764FA0DF10501284601224FF4FA63E4
:10138000FFF71EF920464FF400510122FEF7FEFF41
:1013900035208DF8070020464FF4005100228DF8CB
:1013A0000580FEF7F3FF0DF107010DF10602284657
:1013B00001230096FFF742FA0DF1050128460122AC
:1013C0004FF4FA63FFF7FCF820464FF40051012276
:1013D000FEF7DCFF36208DF8070020464FF4005161
:1013E00000228DF80580FEF7D1FF0DF107010DF108
:1013F0000602284601230096FFF720FA0DF10501A9
:10140000284601224FF4FA63FFF7DAF820464FF43A
:1014100000510122FEF7BAFF37208DF80700112096
:101420008DF8050020464FF400510022FEF7AEFF74
:101430000DF107010DF10602284601230096FFF782
:10144000FDF90DF10501284601224FF4FA63FFF77B
:10145000B7F820464FF400510122FEF797FF3C20D9
:101460008DF8070020464FF4005100228DF80580CA
:10147000FEF78CFF0DF107010DF10602284601234E
:101480000096FFF7DBF90DF10501284601224FF424
:10149000FA63FFF795F820464FF400510122FEF75A
:1014A00075FF3D208DF8070020464FF400510022C3
:1014B0008DF80580FEF76AFF0DF107010DF10602B8
:1014C000284601230096FFF7B9F90DF105012846DA
:1014D00001224FF4FA63FFF773F820464FF40051EE
:1014E0000122FEF753FFE2208DF8070020464FF45B
:1014F00000510022FEF74AFF0DF107010DF106022F
:10150000284601230096FFF799F920464FF4005131
:101510000122FEF73BFFE1208DF8070020464FF443
:1015200000510022FEF732FF0DF107010DF1060216
:10153000284601230096FFF781F920464FF4005119
:101540000122FEF723FF02B0BDE8F081F0B583B0C1
:1015500040F200470546C4F2020700208DF808005B
:1015600038464FF400510022FEF710FF40F2780693
:10157000C2F200064FF4FA6402A90DF107023046E8
:1015800001230094FFF75AF90DF1060130460122BC
:101590004FF4FA63FEF714FF38464FF4005101226E
:1015A000FEF7F4FE9DF80600022D05D0012D08BFC0
:1015B00000F0FB0002E000BF40F0040020218DF8A5
:1015C0000B108DF8090038464FF400510022FEF749
:1015D000DDFE40F27805C2F200054FF4FA660DF127
:1015E0000B010DF10A02284601230096FFF726F9A8
:1015F0000DF10901284601224FF4FA63FEF7E0FFDE
:1016000038464FF400510122FEF7C0FE03B0F0BD92
:10161000F0B583B040F200470546C4F20207062049
:101620008DF8080038464FF400510022FEF7AEFE58
:1016300040F27806C2F200064FF4FA6402A90DF1F6
:101640000702304601230094FFF7F8F80DF1060178
:10165000304601224FF4FA63FEF7B2FE38464FF4EB
:1016600000510122FEF792FE9DF80600022D20F0A7
:10167000280005D0012D08BF40F0080002E000BF9F
:1016800040F0200026218DF80B108DF80900384617
:101690004FF400510022FEF779FE40F27805C2F2C5
:1016A00000054FF4FA660DF10B010DF10A02284610
:1016B00001230096FFF7C2F80DF109012846012227
:1016C0004FF4FA63FEF77CFF38464FF400510122D5
:1016D000FEF75CFE03B0F0BDF0B583B040F200440D
:1016E00006460620C4F202048DF8080020464FF496
:1016F00000510022FEF74AFE40F27805C2F20005D2
:101700004FF4FA6702A90DF107022846012300975A
:10171000FFF794F80DF10601284601224FF4FA6311
:10172000FEF74EFE20464FF400510122FEF72EFE3A
:101730009DF80600262100F0F90040EA46008DF8E9
:101740000B108DF8090020464FF400510022FEF7DF
:101750001DFE0DF10B010DF10A0228460123009731
:10176000FFF76CF80DF10901284601224FF4FA63E6
:10177000FEF726FF20464FF400510122FEF706FE39
:1017800003B0F0BDF0B583B00E460446FFF726FC6B
:10179000FFF7D0FBFFF77AFBA4F1600040F20044B2
:1017A0002521C4F202048DF808108DF806002046A9
:1017B0004FF400510022FEF7E9FD40F27805C2F235
:1017C00000054FF4FA6702A90DF10702284601232C
:1017D0000097FFF733F80DF10601284601224FF478
:1017E000FA63FEF7EDFE20464FF400510122FEF7AA
:1017F000CDFD3046FFF70CFF03200326FFF76CFFFB
:101800000120FFF7A3FE23208DF80B0020464FF4A4
:10181000005100228DF80960FEF7B8FD0DF10B01B3
:101820000DF10A02284601230097FFF707F80DF192
:101830000901284601224FF4FA63FEF7C1FE204653
:101840004FF400510122FEF7A1FD0320FFF76CFACF
:10185000FA20FFF7BFFA20464FF480510122FEF72D
:1018600095FD03B0F0BD000070B584B040F20044B7
:10187000C4F20204FF2520464FF4005100228DF8E7
:101880000550FEF783FD40F278004FF4FA66C2F28D
:1018900000000DF1050101AA01230096FEF7CEFF1D
:1018A00020464FF400510122FEF770FD9DF8040020
:1018B00080063BD404F580604FF400510122FEF70E
:1018C00065FD20464FF4005100228DF80C50FEF7C4
:1018D0005DFD40F27805C2F2000503A90DF10B028F
:1018E000284601230096FEF7A9FF20464FF4005139
:1018F0000122FEF74BFD9DF80B00272140F0100060
:101900008DF80F108DF80D0020464FF40051002285
:10191000FEF73CFD0DF10F010DF10E0228460123EB
:101920000096FEF78BFF0DF10D0139E004F58060A4
:101930004FF40051FEF722FD20464FF400510022E3
:101940008DF80750FEF722FD40F27805C2F200053F
:101950000DF107010DF10602284601230096FEF75E
:101960006DFF20464FF400510122FEF70FFD9DF858
:101970000600272140F020008DF80A108DF808009D
:1019800020464FF400510022FEF700FD0DF10A0140
:101990000DF10902284601230096FEF74FFF02A928
:1019A000284601224FF4FA63FEF70AFE20464FF460
:1019B00000510122FEF7EAFC04B070BDF0B583B01F
:1019C00040F200470546A020C4F202078DF80B0044
:1019D00038464FF400510022FEF7D8FC40F278065A
:1019E000C2F200064FF4FA640DF10B010DF10A0288
:1019F000304601230094FEF721FF30462946082295
:101A00004FF4FA63FEF7DCFD38464FF40051012233
:101A1000FEF7BCFC03B0F0BDF1EE100A4FF6FF710B
:101A2000C0F2C03120EA010040F04070E1EE100A3F
:101A300070470000581A000800000020180000003D
:101A4000FC010008701A000818000020C006000001
:101A50001C0200080000000001000000100000004F
:101A60000024F40000010203040506070000000042
:040000050800019955
:00000001FF
