:020000040800F2
:10000000D806002065020008950B00088D0B00083B
:10001000910B000821030008D90C00080000000023
:10002000000000000000000000000000BD0C0008FF
:100030002503000800000000990B0008C10C00080F
:100040007F0200087F0200087F0200087F0200088C
:100050007F0200087F0200087F0200087F0200087C
:100060007F0200087F0200087F0200087F0200086C
:100070007F0200087F0200087F0200087F0200085C
:100080007F0200087F0200087F02000800000000D5
:10009000000000000000000000000000290300082C
:1000A0007F0200087F0200087F0200087F0200082C
:1000B0007F0200087F0200087F0200087F0200081C
:1000C0007F0200087F0200087F0200087F0200080C
:1000D0007F0200087F0200087F0200080000000085
:1000E0007F0200087F0200087F0200080000000075
:1000F0000000000000000000000000007F02000877
:10010000000000007F0200087F0200087F02000854
:1001100000000000000000000000000000000000DF
:100120007F0200087F0200087F0200087F020008AB
:100130007F02000800000000000000000000000036
:100140000000000000000000000000007F02000826
:100150007F0200087F0200087F0200087F0200087B
:100160007F0200087F02000800000000000000007D
:10017000000000000000000000000000000000007F
:10018000000000007F0200080000000000000000E6
:100190007F0200087F02000800F002F800F052F829
:1001A00014A696E8000CB244B344DA4501D100F03D
:1001B00049F8BAE80F000FA696E83000A5EB040551
:1001C00004EB0607AAEB0704A7F101074FEA151590
:1001D0004FEA3414A4F10104AC4201D300F032F828
:1001E00013F0010F18BFFB1A43F0010300F001F8F0
:1001F000DBE7184788170000A8170000103A24BF53
:1002000078C878C1FAD8520724BF30C830C144BF7B
:1002100004680C6070470000704700000023002451
:1002200000250026103A28BF78C1FBD8520728BF06
:1002300030C148BF0B6070471FB501F091FB1FBD77
:1002400010B510BD00F031F81146FFF7F5FF00F0D2
:1002500045FD00F04FF803B4FFF7F2FF03BC00F0D8
:1002600057F800000948804709480047FEE7FEE7C5
:10027000FEE7FEE7FEE7FEE7FEE7FEE7FEE7FEE756
:1002800004480549054A064B70470000C50C0008A4
:1002900099010008D8000020D8060020D8020020CC
:1002A000D8020020704770477047754600F02CF860
:1002B000AE4605006946534620F00700854618B053
:1002C00020B5FFF7DDFFBDE820404FF000064FF0FE
:1002D00000074FF000084FF0000BAC46ACE8C00937
:1002E000ACE8C009ACE8C009ACE8C00921F00701DE
:1002F0008D46704710B50446AFF300802046BDE838
:100300001040FFF7A8BF0000004870471000002011
:1003100001491820ABBEFEE726000200704700002E
:10032000FEE70000704700004FF4807000F01EB838
:10033000B0B5044600F034F8054640F20000C2F2C1
:1003400000000078611C18BF044400BF00F028F8CA
:10035000401BA042FAD3B0BDB0F5807F18BF7047F4
:1003600040F2C800C2F2000001F06CB943F614413B
:10037000C4F201010A68024214BF08607047FFF727
:10038000EBBF0000426902EA0103914341EA0341E5
:1003900081617047002A08BF09048161704700002D
:1003A00040F2D000C2F200000068704740F2000046
:1003B00040F2D001C2F20000C2F2000100780A68E7
:1003C00010440860704700002DE9F04182B00446F7
:1003D00090F85100012819D160681D4617460E4655
:1003E000B0F5827F01D1A068A0B1FFF7D9FF8046A8
:1003F000002E4FF0010018BF002F03D102B0BDE85E
:10040000F08100BF94F85000012811D1022002B001
:10041000BDE8F081042084F8510020463146324680
:100420003B46009500F00EFA02B0BDE8F08100BF37
:10043000012084F850000420002184F851006165F7
:10044000A663A787E7872163A186E186A268206863
:10045000B2F5004F2164616438D00168490640D587
:10046000E168E08F002944D000287BD0681C0CD1C3
:100470001BE000BFC068A16B21F8020BA163E08FF5
:100480000138E087E08F00286CD020688168C907B8
:10049000F0D1FFF785FFA0EB0800A842F2D342E0BD
:1004A000FFF77EFFE08F00285CD020688168C907D5
:1004B000F6D0C068A16B21F8020BA163E08F013870
:1004C000E087E08F0028F0D14CE000BF016821F008
:1004D00040010160016821F4804101600168490622
:1004E000BED4016841F040010160E168E08F00295D
:1004F000BAD1B8B3681C0CD124E000BF007BA16B5B
:100500000870A06B0130A063E08F0138E087E08FB6
:1005100040B320688168C907F0D1FFF741FFA0EB25
:100520000800A842F3D3012084F85100002084F889
:100530005000032002B0BDE8F08100BFFFF730FF9C
:10054000E08F78B120688168C907F7D0007BA16B84
:100550000870A06B0130A063E08F0138E087E08F66
:100560000028EFD16068B0F5827F0ED1A068B0F5A9
:10057000004F02D0B0F5806F0AD12168B0F5806FCE
:100580000A6822F040020A6002D12046012101E0FF
:100590002046802100222B46CDF8008000F0FEFA94
:1005A00028B1606D40F0200060652020606501206A
:1005B00084F85100002084F85000606D002818BFB6
:1005C000012002B0BDE8F0812DE9F04184B01D4664
:1005D00016460F460446FFF7E3FE94F85110012932
:1005E0000ED18046002F4FF0010018BF002E03D11E
:1005F00004B0BDE8F08100BF94F85000012803D199
:10060000022004B0BDE8F081012084F850000320EE
:10061000002184F8510061652763A686E686A16300
:10062000A187E187A0682164B0F5004F206861646C
:1006300007D1016821F040010160016841F4804167
:1006400001600168490603D4016841F0400101607E
:100650006168731EE268B1FA81F1B3FA83F3490964
:100660005B09B2F5006F41EA030139D131B137F8C6
:10067000021BC1602763E08E0138E086E08E00280F
:1006800070D0681C0BD11AE0216B31F8022BC260CC
:100690002163E08E0138E086E08E002862D0206879
:1006A00081688907F0D4FFF77BFEA0EB0800A84221
:1006B000F2D338E0FFF774FEE08E002852D02068B5
:1006C00081688907F6D5216B31F8022BC26021635E
:1006D000E08E0138E086E08E0028F0D142E000BFD5
:1006E00039B139780173206B01302063E08E013815
:1006F000E086E08EB0B3681C0BD123E0216B097853
:100700000173206B01302063E08E0138E086E08EBB
:1007100040B3206881688907F0D4FFF741FEA0EB61
:100720000800A842F3D3012084F85100002084F887
:100730005000032004B0BDE8F08100BFFFF730FE99
:10074000E08E78B1206881688907F7D5216B097838
:100750000173206B01302063E08E0138E086E08E6B
:100760000028EFD12046022101222B46CDF800803F
:1007700000F014FAE0B1606D40F0200060652020C8
:100780006065A06838B9002002902068C1680291B5
:10079000806802900298012084F85100002084F8BB
:1007A0005000606D002818BF012004B0BDE8F08142
:1007B00040F20800C2F20000006849F68171C1F2FF
:1007C0005E61A0FB0101480D4FF47A71484303902C
:1007D0006068B0F5827F0BD12046802100222B4635
:1007E000CDF8008000F0DAF90028C4D1C9E700BFD5
:1007F00003980028C5D003980138039020688068CA
:100800000006BED503980028BBD00398013803909A
:10081000206880680006B4D503980028B1D00398FA
:1008200001380390206880680006AAD50398002844
:10083000A7D0039801380390206880680006D7D4B9
:100840009FE700002DE9F04383B01E4615460F4692
:100850000446FFF7A5FD94F851108146012909D1FE
:10086000002F4FF0010018BF002D0FD103B0BDE8DD
:10087000F08300BF6068B0F5827F0DD104294FF08E
:100880000200F3D1A1680029EAD0EFE7002EEDD0F5
:1008900094F85000012803D1022003B0BDE8F08392
:1008A000012084F8500094F85100002104281CBF56
:1008B000052084F851006165A563E687A687276354
:1008C000E6862068A686216461640168490603D42F
:1008D000016841F0400101606168731EE268B1FA8D
:1008E00081F1B3FA83F3DDF8288049095B09B2F599
:1008F000006F41EA030165D131B137F8021BC160D5
:100900002763E08E0138E086012518F1010032D11D
:1009100002E000BFFFF744FDE08E18B9E08F002829
:1009200000F0B8802068816889070CD5E18E51B14C
:10093000012D08D1216B002531F8022BC260216303
:10094000E18E0139E1868168C907E3D0E18F002992
:10095000E0D0C068A16B012521F8020BA163E08FF4
:100960000138E087D6E700BFFFF71AFDA0EB0900CA
:10097000404580F0A580E08E18B9E08F002800F097
:1009800089802068816889070CD5E18E51B1012DDD
:1009900008D1216B002531F8022BC2602163E18E62
:1009A0000139E1868168C907DED0E18F0029DBD0FB
:1009B000C068A16B012521F8020BA163E08F01380B
:1009C000E087D1E739B139780173206B01302063BA
:1009D000E08E0138E086012518F1010032D101E0F6
:1009E000FFF7DEFCE08E10B9E08F002852D02068BF
:1009F000816889070ED5E18E61B1012D0AD1216B85
:100A0000002509780173216B206801312163E18E93
:100A10000139E1868168C907E2D0E18F0029DFD082
:100A2000C068A16B01250870A06B0130A063E08F46
:100A30000138E087D4E700BFFFF7B2FCA0EB090064
:100A400040453DD2E08E08B9E08F18B32068816838
:100A500089070ED5E18E61B1012D0AD1216B0025E8
:100A600009780173216B206801312163E18E01391E
:100A7000E1868168C907DFD0E18F0029DCD0C0683A
:100A8000A16B01250870A06B0130A063E08F0138D5
:100A9000E087D1E72046022101224346CDF80090AD
:100AA00000F07CF8B0B1606D40F02000606520205F
:100AB0006065002084F85000012003B0BDE8F08399
:100AC000012084F85100002084F85000032003B076
:100AD000BDE8F08340F20800C2F20000006849F669
:100AE0008171C1F25E61A0FB0101480D4FF47A7182
:100AF000484302906068B0F5827F0BD12046802188
:100B000000224346CDF8009000F048F80028CAD1F2
:100B100024E000BF029808B30298013802902068D0
:100B2000806800061AD50298C0B102980138029078
:100B300020688068000611D5029878B102980138C3
:100B4000029020688068000608D5029830B10298AB
:100B500001380290206880680006DBD4A06838B9AC
:100B6000002001902068C16801918068019001987F
:100B7000012084F85100002084F85000606D0028A6
:100B800018BF012003B0BDE8F0830000FEE70000BD
:100B9000FEE70000FEE70000704700002DE9F0438B
:100BA00081B0089C984615460E468146FFF7F8FB33
:100BB000201A00EB0804FFF7F3FB40F20801C2F231
:100BC00000010968C1F3CB3161430091D9F80010ED
:100BD0008A683240921BB2FA82F25209AA423DD090
:100BE000074618F1010031D0FFF7DAFBC01BA04225
:100BF00038D2009800990028A1F101010091D9F89C
:100C00000010896808BF044601EA0600801BB0FA9C
:100C100080F04009A842E7D120E000BF886830405A
:100C2000801BB0FA80F04009A84217D08868304095
:100C3000801BB0FA80F04009A8420FD0886830408D
:100C4000801BB0FA80F04009A84207D08868304085
:100C5000801BB0FA80F04009A842DFD1002001B02B
:100C6000BDE8F083D9E900014268B1F5827F22F046
:100C7000E00242600BD1D9F80810B1F5004F02D064
:100C8000B1F5806F03D1016821F040010160D9F80E
:100C90002810B1F5005F07D1016821F4005101600F
:100CA000016841F400510160012089F851000020E1
:100CB00089F85000032001B0BDE8F08370470000C0
:100CC000FFF774BB4EF68850CEF20000016841F485
:100CD0007001016070470000FEE7000040F6C4109C
:100CE000002100F017FC00BF6420FFF721FBFBE7A9
:100CF000F0B583B040F2004406460420C4F202047A
:100D00008DF8080020464FF400510022FFF742FB07
:100D100040F27005C2F200054FF4FA6702A90DF126
:100D20000702284601230097FFF78CFD0DF106010D
:100D3000284601224FF4FA63FFF746FB20464FF4A2
:100D400000510122FFF726FB9DF8060024213043C5
:100D500040F0F0008DF80B108DF8090020464FF49C
:100D600000510022FFF716FB0DF10B010DF10A02F5
:100D7000284601230097FFF765FD0DF1090128467C
:100D800001224FF4FA63FFF71FFC20464FF4005195
:100D90000122FFF7FFFA03B0F0BD0000F0B583B009
:100DA00040F2004406460420C4F202048DF8080014
:100DB00020464FF400510022FFF7ECFA40F2700594
:100DC000C2F200054FF4FA6702A90DF107022846A6
:100DD00001230097FFF736FD0DF106012846012299
:100DE0004FF4FA63FFF7F0FA20464FF40051012266
:100DF000FFF7D0FA710848F213325143F0229DF800
:100E0000060002EA91410139084324218DF80B10B4
:100E10008DF8090020464FF400510022FFF7BAFA7E
:100E20000DF10B010DF10A02284601230097FFF78F
:100E300009FD0DF10901284601224FF4FA63FFF77D
:100E4000C3FB20464FF400510122FFF7A3FA03B081
:100E5000F0BD000070B584B040F200440020C4F240
:100E600002048DF80C0020464FF400510022FFF7D9
:100E700091FA40F27005C2F200054FF4FA6603A938
:100E80000DF10B02284601230096FFF7DBFC0DF164
:100E90000A01284601224FF4FA63FFF795FA20462B
:100EA0004FF400510122FFF775FA9DF80A00202146
:100EB00040F002008DF80F108DF80D0020464FF421
:100EC00000510022FFF766FA0DF10F010DF10E023D
:100ED000284601230096FFF7B5FC0DF10D012846C9
:100EE00001224FF4FA63FFF76FFB20464FF40051E5
:100EF0000122FFF74FFA04B070BD000070B584B056
:100F000040F200440020C4F202048DF80C00204698
:100F10004FF400510022FFF73DFA40F27005C2F293
:100F200000054FF4FA6603A90DF10B0228460123D0
:100F30000096FFF787FC0DF10A01284601224FF4C5
:100F4000FA63FFF741FA20464FF400510122FFF700
:100F500021FA9DF80A00202140F001008DF80F10C1
:100F60008DF80D0020464FF400510022FFF712FAD1
:100F70000DF10F010DF10E02284601230096FFF737
:100F800061FC0DF10D01284601224FF4FA63FFF7D1
:100F90001BFB20464FF400510122FFF7FBF904B080
:100FA00070BD00002DE9F04182B040F20044C4F26F
:100FB000020420464FF400510122FFF7EBF92046CE
:100FC0004FF4805100224FF00008FFF7E3F9202092
:100FD0008DF8070008208DF8050020464FF40051D9
:100FE0000022FFF7D7F940F27005C2F200054FF476
:100FF000FA660DF107010DF106022846012300965D
:10100000FFF720FC0DF10501284601224FF4FA6399
:10101000FFF7DAFA20464FF400510122FFF7BAF940
:1010200021208DF807003F208DF8050020464FF461
:1010300000510022FFF7AEF90DF107010DF1060294
:10104000284601230096FFF7FDFB0DF10501284618
:1010500001224FF4FA63FFF7B7FA20464FF400512C
:101060000122FFF797F922208DF807000327204679
:101070004FF4005100228DF80570FFF78BF90DF148
:1010800007010DF10602284601230096FFF7DAFB5F
:101090000DF10501284601224FF4FA63FFF794FA97
:1010A00020464FF400510122FFF774F923208DF8F8
:1010B000070020464FF4005100228DF80570FFF71D
:1010C00069F90DF107010DF106022846012300968A
:1010D000FFF7B8FB0DF10501284601224FF4FA6332
:1010E000FFF772FA20464FF400510122FFF752F940
:1010F00024208DF8070020464FF4005100228DF87F
:101100000570FFF747F90DF107010DF106022846BA
:1011100001230096FFF796FB0DF1050128460122F9
:101120004FF4FA63FFF750FA20464FF400510122C2
:10113000FFF730F925208DF8070002208DF8050013
:1011400020464FF400510022FFF724F90DF107016A
:101150000DF10602284601230096FFF773FB0DF1FF
:101160000501284601224FF4FA63FFF72DFA2046C5
:101170004FF400510122FFF70DF926208DF80700EA
:1011800007208DF8050020464FF400510022FFF79C
:1011900001F90DF107010DF1060228460123009621
:1011A000FFF750FB0DF10501284601224FF4FA63C9
:1011B000FFF70AFA20464FF400510122FFF7EAF840
:1011C00027208DF807007E208DF8050020464FF47B
:1011D00000510022FFF7DEF80DF107010DF10602C4
:1011E000284601230096FFF72DFB0DF10501284647
:1011F00001224FF4FA63FFF7E7F920464FF400515C
:101200000122FFF7C7F8312720464FF40051002292
:101210008DF807708DF80580FFF7BCF80DF1070118
:101220000DF10602284601230096FFF70BFB0DF196
:101230000501284601224FF4FA63FFF7C5F920465D
:101240004FF400510122FFF7A5F820464FF400515A
:1012500000228DF807708DF80580FFF79BF80DF1DF
:1012600007010DF10602284601230096FFF7EAFA6E
:101270000DF10501284601224FF4FA63FFF7A4F9A6
:1012800020464FF400510122FFF784F832208DF8F8
:10129000070020464FF4005100228DF80580FFF72B
:1012A00079F80DF107010DF1060228460123009699
:1012B000FFF7C8FA0DF10501284601224FF4FA6341
:1012C000FFF782F920464FF400510122FFF762F840
:1012D00033208DF8070020464FF4005100228DF88E
:1012E0000580FFF757F80DF107010DF106022846BA
:1012F00001230096FFF7A6FA0DF105012846012209
:101300004FF4FA63FFF760F920464FF400510122D1
:10131000FFF740F834208DF8070020464FF40051C5
:1013200000228DF80580FFF735F80DF107010DF16A
:101330000602284601230096FFF784FA0DF1050105
:10134000284601224FF4FA63FFF73EF920464FF496
:1013500000510122FFF71EF835208DF807002046C6
:101360004FF4005100228DF80580FFF713F80DF1BE
:1013700007010DF10602284601230096FFF762FAE5
:101380000DF10501284601224FF4FA63FFF71CF91D
:1013900020464FF400510122FEF7FCFF36208DF865
:1013A000070020464FF4005100228DF80580FEF71B
:1013B000F1FF0DF107010DF1060228460123009609
:1013C000FFF740FA0DF10501284601224FF4FA63B8
:1013D000FFF7FAF820464FF400510122FEF7DAFF3A
:1013E00037208DF8070011208DF8050020464FF4B6
:1013F00000510022FEF7CEFF0DF107010DF10602AC
:10140000284601230096FFF71DFA0DF10501284635
:1014100001224FF4FA63FFF7D7F820464FF400514A
:101420000122FEF7B7FF3C208DF8070020464FF45D
:10143000005100228DF80580FEF7ACFF0DF1070189
:101440000DF10602284601230096FFF7FBF90DF186
:101450000501284601224FF4FA63FFF7B5F820464C
:101460004FF400510122FEF795FF3D208DF8070053
:1014700020464FF4005100228DF80580FEF78AFFC8
:101480000DF107010DF10602284601230096FFF732
:10149000D9F90DF10501284601224FF4FA63FFF74F
:1014A00093F820464FF400510122FEF773FFE2202B
:1014B0008DF8070020464FF400510022FEF76AFF26
:1014C0000DF107010DF10602284601230096FFF7F2
:1014D000B9F920464FF400510122FEF75BFFE120ED
:1014E0008DF8070020464FF400510022FEF752FF0E
:1014F0000DF107010DF10602284601230096FFF7C2
:10150000A1F920464FF400510122FEF743FF02B03B
:10151000BDE8F0812DE9F04184B00E460746FFF7A3
:1015200041FDFFF7EBFCFFF795FC312040F2004452
:101530008DF809000820C4F202048DF80700204647
:101540004FF400510022FEF725FF40F27005C2F271
:1015500000054FF4FA680DF1090102AA284601239B
:10156000CDF80080FFF76EF90DF107012846012242
:101570004FF4FA63FFF728F820464FF40051012298
:10158000FEF708FFA7F1600025218DF80C108DF8FB
:101590000A0020464FF400510022FEF7FBFE03A98B
:1015A0000DF10B0228460123CDF80080FFF74AF920
:1015B0000DF10A01284601224FF4FA63FFF704F8FF
:1015C00020464FF400510122FEF7E4FE304600F0C1
:1015D0000DF90320032600F06DF9012000F0A4F8B6
:1015E00023208DF80F0020464FF4005100228DF883
:1015F0000D60FEF7CFFE0DF10F010DF10E02284632
:101600000123CDF80080FFF71DF90DF10D012846EB
:1016100001224FF4FA63FEF7D7FF20464FF4005142
:101620000122FEF7B7FE0320FFF762FBFA20FFF767
:10163000B5FB20464FF480510122FEF7ABFE04B00B
:10164000BDE8F081F0B583B040F200440646612069
:10165000C4F202048DF8060020464FF40051002227
:10166000FEF798FE40F27005C2F200054FF4FA67EB
:101670000DF106010DF10502284601230097FFF741
:10168000E1F82846314608224FF4FA63FEF79CFE43
:1016900020464FF400510122FEF77CFEFF208DF81A
:1016A000080020464FF400510022FEF773FE02A905
:1016B0000DF10702284601230097FFF7C3F82046E3
:1016C0004FF400510122FEF765FE9DF80700272127
:1016D00040F040008DF80B108DF8090020464FF4C3
:1016E00000510022FEF756FE0DF10B010DF10A022A
:1016F000284601230097FFF7A5F80DF109012846B8
:1017000001224FF4FA63FEF75FFF20464FF40051C9
:101710000122FEF73FFE04F580604FF40051FEF712
:1017200031FE03B0F0BD0000F0B583B040F20047D9
:101730000546C4F2020700208DF8080038464FF431
:1017400000510022FEF726FE40F27006C2F20006AB
:101750004FF4FA6402A90DF1070230460123009408
:10176000FFF770F80DF10601304601224FF4FA63DD
:10177000FEF72AFE38464FF400510122FEF70AFE1A
:101780009DF80600022D05D0012D08BF00F0FB00DA
:1017900002E000BF40F0040020218DF80B108DF80E
:1017A000090038464FF400510022FEF7F3FD40F2E5
:1017B0007005C2F200054FF4FA660DF10B010DF150
:1017C0000A02284601230096FFF73CF80DF10901B3
:1017D000284601224FF4FA63FEF7F6FE38464FF42E
:1017E00000510122FEF7D6FD03B0F0BDF0B583B085
:1017F00040F200470546C4F2020706208DF80800B3
:1018000038464FF400510022FEF7C4FD40F2700646
:10181000C2F200064FF4FA6402A90DF10702304645
:1018200001230094FFF70EF80DF106013046012266
:101830004FF4FA63FEF7C8FD38464FF40051012219
:10184000FEF7A8FD9DF80600022D20F0280005D027
:10185000012D08BF40F0080002E000BF40F020006A
:1018600026218DF80B108DF8090038464FF40051F1
:101870000022FEF78FFD40F27005C2F200054FF422
:10188000FA660DF10B010DF10A02284601230096BC
:10189000FEF7D8FF0DF10901284601224FF4FA6343
:1018A000FEF792FE38464FF400510122FEF772FD1A
:1018B00003B0F0BDF0B583B040F200440646062008
:1018C000C4F202048DF8080020464FF400510022B3
:1018D000FEF760FD40F27005C2F200054FF4FA67B2
:1018E00002A90DF10702284601230097FEF7AAFF7F
:1018F0000DF10601284601224FF4FA63FEF764FD5C
:1019000020464FF400510122FEF744FD9DF80600E9
:10191000262100F0F90040EA46008DF80B108DF802
:10192000090020464FF400510022FEF733FD0DF16F
:101930000B010DF10A02284601230097FEF782FFF2
:101940000DF10901284601224FF4FA63FEF73CFE2F
:1019500020464FF400510122FEF71CFD03B0F0BDFC
:10196000F1EE100A4FF6FF71C0F2C03120EA01001B
:1019700040F04070E1EE100A70470000A019000826
:101980000000002010000000FC010008B019000851
:1019900010000020C80600001C0200080000000023
:1019A00001000000100000000024F400000000000E
:040000050800019955
:00000001FF
